{"contracts/Storage.sol":{"Storage":{"abi":[{"inputs":[],"name":"readNum","outputs":[{"internalType":"uint256","name":"","type":"uint256"}],"stateMutability":"view","type":"function"},{"inputs":[{"internalType":"uint256","name":"_num","type":"uint256"}],"name":"writeNum","outputs":[],"stateMutability":"nonpayable","type":"function"}],"evm":{"bytecode":{"linkReferences":{},"object":"6080604052348015600f57600080fd5b5060ac8061001e6000396000f3fe6080604052348015600f57600080fd5b506004361060325760003560e01c8063272de97d146037578063a896dcc7146049575b600080fd5b60476042366004605e565b600055565b005b60005460405190815260200160405180910390f35b600060208284031215606f57600080fd5b503591905056fea26469706673582212209782cfeaf5ec4cd9f52bb4cf6aebd2d9e0b41c3e6b2acb36e13730d6687355dc64736f6c63430008120033","opcodes":"PUSH1 0x80 PUSH1 0x40 MSTORE CALLVALUE DUP1 ISZERO PUSH1 0xF JUMPI PUSH1 0x0 DUP1 REVERT JUMPDEST POP PUSH1 0xAC DUP1 PUSH2 0x1E PUSH1 0x0 CODECOPY PUSH1 0x0 RETURN INVALID PUSH1 0x80 PUSH1 0x40 MSTORE CALLVALUE DUP1 ISZERO PUSH1 0xF JUMPI PUSH1 0x0 DUP1 REVERT JUMPDEST POP PUSH1 0x4 CALLDATASIZE LT PUSH1 0x32 JUMPI PUSH1 0x0 CALLDATALOAD PUSH1 0xE0 SHR DUP1 PUSH4 0x272DE97D EQ PUSH1 0x37 JUMPI DUP1 PUSH4 0xA896DCC7 EQ PUSH1 0x49 JUMPI JUMPDEST PUSH1 0x0 DUP1 REVERT JUMPDEST PUSH1 0x47 PUSH1 0x42 CALLDATASIZE PUSH1 0x4 PUSH1 0x5E JUMP JUMPDEST PUSH1 0x0 SSTORE JUMP JUMPDEST STOP JUMPDEST PUSH1 0x0 SLOAD PUSH1 0x40 MLOAD SWAP1 DUP2 MSTORE PUSH1 0x20 ADD PUSH1 0x40 MLOAD DUP1 SWAP2 SUB SWAP1 RETURN JUMPDEST PUSH1 0x0 PUSH1 0x20 DUP3 DUP5 SUB SLT ISZERO PUSH1 0x6F JUMPI PUSH1 0x0 DUP1 REVERT JUMPDEST POP CALLDATALOAD SWAP2 SWAP1 POP JUMP INVALID LOG2 PUSH5 0x6970667358 0x22 SLT KECCAK256 SWAP8 DUP3 0xCF 0xEA CREATE2 0xEC 0x4C 0xD9 CREATE2 0x2B 0xB4 0xCF PUSH11 0xEBD2D9E0B41C3E6B2ACB36 0xE1 CALLDATACOPY ADDRESS 0xD6 PUSH9 0x7355DC64736F6C6343 STOP ADDMOD SLT STOP CALLER "},"methodIdentifiers":{"readNum()":"a896dcc7","writeNum(uint256)":"272de97d"}}}}}